{"address":"0xEa809e2ad0653816c5c25394032213cED1fAB215","bytecode":"0x6080604052348015600f57600080fd5b5061029f8061001f6000396000f3fe608060405234801561001057600080fd5b50600436106100415760003560e01c80632baeceb714610046578063a87d942c14610050578063d09de08a1461006e575b600080fd5b61004e610078565b005b6100586100d7565b6040516100659190610114565b60405180910390f35b6100766100e0565b005b60008054116100bc576040517f08c379a00000000000000000000000000000000000000000000000000000000081526004016100b3906101b2565b60405180910390fd5b60016000808282546100ce9190610201565b92505081905550565b60008054905090565b60016000808282546100f29190610235565b92505081905550565b6000819050919050565b61010e816100fb565b82525050565b60006020820190506101296000830184610105565b92915050565b600082825260208201905092915050565b7f436f756e7465723a2063616e6e6f742064656372656d656e742062656c6f772060008201527f7a65726f00000000000000000000000000000000000000000000000000000000602082015250565b600061019c60248361012f565b91506101a782610140565b604082019050919050565b600060208201905081810360008301526101cb8161018f565b9050919050565b7f4e487b7100000000000000000000000000000000000000000000000000000000600052601160045260246000fd5b600061020c826100fb565b9150610217836100fb565b925082820390508181111561022f5761022e6101d2565b5b92915050565b6000610240826100fb565b915061024b836100fb565b9250828201905080821115610263576102626101d2565b5b9291505056fea264697066735822122010b9a525fed1bf3dacec51d6b6089368d8849083d2e4def1f09ef48ba3f96ffd64736f6c634300081b0033","abi":[{"inputs":[],"name":"decrement","outputs":[],"stateMutability":"nonpayable","type":"function"},{"inputs":[],"name":"getCount","outputs":[{"internalType":"uint256","name":"","type":"uint256"}],"stateMutability":"view","type":"function"},{"inputs":[],"name":"increment","outputs":[],"stateMutability":"nonpayable","type":"function"}]}